:020000040000FA
:10000000C05B00204D4B0100BF200200394B0100B6
:10001000394B0100394B0100394B01000000000051
:10002000000000000000000000000000B94C0100CA
:10003000394B010000000000554C0100394B010014
:100040006D4E0100434802006D4E01006D4E0100EF
:100050006D4E01006D4E01006D4E01006D4E0100B0
:10006000F94702006D4E01006D4E01002D4802005F
:100070006D4E01006D4E01006D4E01006D4E010090
:100080006D4E01006D4E01006D4E01006D4E010080
:100090006D4E01006D4E01006D4E01006D4E010070
:1000A0006D4E01006D4E01006D4E01006D4E010060
:1000B0006D4E01006D4E01006D4E01006D4E010050
:1000C0006D4E01006D4E01006D4E01006D4E010040
:1000D0006D4E01006D4E01006D4E01006D4E010030
:1000E0006D4E01006D4E01006D4E01006D4E010020
:1000F0006D4E01006D4E01006D4E01006D4E010010
:10010000064B074ADB7802604FF432728280C3717B
:100110000822002382710372704700BF500E002036
:1001200021340100064B074A1B7902604FF4B47278
:100130008280C3710822FF2382710372704700BF5F
:10014000500E0020632F01002DE9F341C41D00284B
:1001500024F00704064614BF2046002000F0F6FCF9
:10016000071E04DA6FF00B0002B0BDE8F0810EB993
:10017000FC42F7D4364D698928896B7B2A7B033191
:10018000033089B280B20FF02CFF0028EADBA97897
:10019000EB783C440334002E194424F0030400FBA4
:1001A00001F114BF2046002000F066FE20440EB985
:1001B0000028D7DB2B790446B3B1697D19446B79EC
:1001C0001944FF29CEDC0330002E20F0030414BFB5
:1001D000204600202A8AC9B200F0BEFE0028C1DBFA
:1001E00004440EB9002CBDDB012000F0A5FCC8B111
:1001F000A97BB9B195F82C300734002B15BF4023EB
:1002000025234FF48172282224F00704002E14BF06
:100210002046002003F03CFA0028A3DB04440EB97A
:10022000002C9FDBAB7CE3B12B799BB10734002E14
:1002300024F0070414BF20460020A97C05F040FFED
:1002400000288FDB044466B9002C0ADA8AE700BF75
:10025000500E0020012000F06FFC10B1AB7B002B92
:10026000E4D1724B1B6893B1A97981B10334002E9C
:1002700024F0030414BF20460020EA7C984700289D
:10028000FFF670AF044416B9002CFFF66BAF684B55
:100290001B688BB1297D79B10334002E24F003044F
:1002A00014BF2046002098470028FFF65BAF0444A7
:1002B00016B9002CFFF656AF5E4B1F68AFB1697DD3
:1002C00099B10334002E2B7E009324F0030414BF55
:1002D00020460020EB7DAA7DB8470028FFF642AFFC
:1002E000044416B9002CFFF63DAF072000F024FCB3
:1002F00098B1A97989B10334002E24F0030414BF06
:1003000020460020AA7E00F015FF0028FFF62AAF45
:10031000044416B9002CFFF625AF95F82500B6FA6F
:1003200086F77F09A0B1EB7F297F033424F007040F
:10033000194444F004043B462246C9B200F03CFF95
:100340000028FFF60FAF044416B9002CFFF60AAFE1
:1003500095F82610002959D00734002E24F00708FC
:1003600014BF404600202A8D0FF050FE041EFFF6F9
:10037000F9AE444416B9002CFFF6F4AE1EB1298D37
:1003800040460AF07FFF95F82010002940D095F8EC
:100390002430002B3CD06A8C0734002E24F0070850
:1003A00002F1240214BF4046002092B20FF02EFE4C
:1003B000041EFFF6D7AE444416B9002CFFF6D2AEA9
:1003C000AB7F297F95F82400033424F007041944F7
:1003D00044F004043B462246C9B200F0DFFE002888
:1003E000FFF6C0AE044416B9002CFFF6BBAE3EB11A
:1003F0006A8C95F82010083292B240460AF048FF05
:100400002B6B5BB176B12C630020ADE68846B5E777
:10041000002EF5D0002211461046EFE7002EF3D152
:100420002046A1E62834FBD59CE600BF1C05002031
:1004300024050020200500201FB572B6184B5D6B07
:10044000E5B9BFF34F8F1749174BCA6802F4E06252
:100450001343CB60BFF34F8F00BFFDE7B2FBF6F253
:10046000DCB20133002AF9D104F110036B4403F824
:100470000C2C0A2234B901A8A847E2E7024600235F
:100480000A26EDE7631E04AEDCB256FA83F3B0FB36
:10049000F2F602FB1600303003F80C0C3046E9E7A8
:1004A000500E002000ED00E00400FA0513B5114CD9
:1004B000637B8DF80130237B8DF800306389ADF8C4
:1004C000043068462389ADF8023003F015FF18B1F7
:1004D000DB210320FFF7B0FF207E03F03DFF08B1D2
:1004E000DE21F6E7E07D03F031FF08B1DF21F0E720
:1004F00002B010BD500E002038B5054600283ED091
:100500000EF030FA10B94FF0FF3038BD0BF0ECFAB6
:10051000B0F5FA7FF7D81C4C1C486563002500F045
:1005200085FA2A222946A01C84F83850257084F8C0
:100530002C5025630EF0AAFD1B222281628140F21D
:10054000032240F20113A28103226380A2730123DC
:100550001F2223712282A3764FF40272F723628254
:10056000638444F60112FB23E2822385EFF31084B7
:1005700072B600F031FE2CB962B62046C5E76FF0C6
:100580001500C2E72846C0E7500E0020AD04000069
:1005900038B51446002840F0B9805E4D95F83830E3
:1005A000032B00F0B080B1B112B96FF0150038BD67
:1005B0000139142900F2AA80DFE801F00B1C1F3476
:1005C0005E67853A6A6D7F404654598B8E9C9FA228
:1005D00094001378AB700020FFF7B6FD0028B7BF7A
:1005E0000123022385F838306FF00B00A8BF85F88F
:1005F0003830DCE71378EB70EDE71379002BD4D0BB
:100600005379002BD1D01288FB2ACED81A2A6388BE
:10061000CBD91B3BE02BC8D82368AB603E4BA288EC
:100620009A80D8E713786A799342BED32B71D2E7C8
:1006300013782A799342B8D86B71CCE713782A796A
:100640009342B2D86B75C6E71378002BADD05378C0
:10065000013BDBB2F82BA8D81388EB822F4B9278A2
:100660009A70B8E71078687608F0F0FEB3E7137870
:10067000002B9AD0AB76AEE7012000F05DFA23782C
:1006800008B1012B91D9AB73A5E713882B82A2E7A0
:100690001378AB719FE7072000F04EFA10B923786A
:1006A000012B82D9072000F047FA18B12378002BDC
:1006B0003FF47BAF2378EB748DE71378082B3FF67C
:1006C00074AF2B7587E71388FF2B3FF66EAFAB74C3
:1006D00081E71378EB767EE713780E2B3FF665AF54
:1006E0002B7778E723680E4A2B626368536023896F
:1006F000138170E713786B776DE71378EB776AE710
:100700001378AB7767E74FF0FF3050E76FF02C00BE
:100710004DE700BF500E0020580E0020660E00204E
:10072000700E0020F8B50D46064630B329B311F01F
:10073000070422D1124F97F83830012B02D16FF005
:100740000B00F8BD032B02D14FF0FF30F9E700F0AA
:100750009DF80028F8D02846FFF7F6FC0028EEDBCD
:1007600012F031FF3046396B03F078FEFFF79EFE42
:10077000032387F838302046E3E76FF01500E0E701
:10078000500E002010B5074C94F83830032B03D1DD
:1007900003F080FE04F0C6FD0FF061FD002084F838
:1007A000380010BD500E002050B1074B03F1140269
:1007B00053F8041B40F8041B9342F9D10020704702
:1007C0006FF01500704700BF6A6C020010B5074B50
:1007D00093F838403CB903F00BFE0320044900F0C5
:1007E000A3F9204610BD4FF0FF30FBE7500E00206C
:1007F0002501000010B5074B93F838403CB903F0D1
:100800000BFE0220044900F08FF9204610BD4FF086
:10081000FF30FBE7500E00200101000010B5054B32
:1008200093F838401CB903F0A5FD204610BD4FF0E9
:10083000FF30FBE7500E002010B5054B93F8384011
:100840001CB910F0C9FD204610BD4FF0FF30FBE78A
:10085000500E002010B5054B93F838401CB910F02D
:10086000BEFD204610BD4FF0FF30FBE7500E0020CC
:10087000024B02681A600020704700BF8C0E0020F7
:10088000014B1B68184700BF8C0E0020024B1868F4
:10089000003818BF012070478C0E0020F7B52E4E8F
:1008A0000446071D2C48376004F054FD0228054615
:1008B00006D1294920460EF044FD284603B0F0BD7C
:1008C000042842D13378092B0AD0262B1ED031467A
:1008D00020460EF09BFDB0F5817F2DD3722112E0F2
:1008E00005213E200EF000FD0028F0D1F37832798A
:1008F00001A943EA02236846ADF800300FF027F95A
:100900000028CFD053210820FFF796FD1A213E2062
:100910000EF0EAFC0028DAD17368C3F30F23ADF8B8
:1009200004306946112301A88DF806300FF03BF919
:100930000028B7D06521E6E70028B3D0A178207859
:100940000EF0D2FC0028B8D1ACE70828B5D1024996
:1009500020460EF025FDB0E7900E0020074B4FF02B
:10096000FF3141F6FF72C3E9001205490022C1E9D7
:1009700000221F21C3E90212704700BFC0040020FB
:10098000940F00203F280CD801380B4BC0F34212C3
:1009900000F01F0053F8223023FA00F000F00100AD
:1009A0007047FF2806D04038C0F34212034B00F0D6
:1009B0001F00EFE701207047C0040020940F0020C3
:1009C0000146074B006849681A4603C240F48C226E
:1009D0001A6041F0107242F4FF625A60704700BF23
:1009E000C00400200246024B0068516803C37047F0
:1009F000940F00200246024B0068516803C3704701
:100A0000C8040020FD281ABF00F1FF30C0B23F200B
:100A1000054B420903EB820300F01F009B6823FA99
:100A200000F000F001007047C0040020014B186086
:100A3000704700BF9C0F002010B5FFF78FFF0FF02D
:100A4000A5FE034B1B68044603B19847204610BD22
:100A50009C0F00200B880288F0B5C3F30E049EB2F1
:100A600004F11803C57CC35A02352A442B4497B2BB
:100A700013FA82F3013B4288B3FBF7F313FB0743FE
:100A80009BB29A42044A93BF22EA060332401343C0
:100A90009BB20B80F0BD00BF0080FFFF4A1E062AFC
:100AA00008B50346084604D84FF4D1711520FFF766
:100AB000C3FC094A914202D940F2A311F6E711B9E9
:100AC00003B1196008BD2BB11B680022C3E90121E5
:100AD0001A1D1A600430F5E7FAFFFF7F10B5114BBD
:100AE00000EB41041A786389B3FBF2F303FB0223A2
:100AF000013A1A44B2F5706F027928BF00231A44F4
:100B00008378B2FBF3F0194403FB1020091AB1FB00
:100B1000F3F003FB101313446FEA43436FEA5343AC
:100B2000638110BDA00F0020024B03EB80035960CE
:100B3000704700BFA00F0020034B03EB80035868F1
:100B4000003818BF01207047A00F00202DE9F04F9A
:100B500010F0070A85B0054604D040F26111172055
:100B6000FFF76AFC554F07F14006B1460446B04610
:100B70004FF0010B57F8043B8DF80BA03BB101A8D7
:100B800098479DF80A30082B01D9E821E7E79DF83E
:100B90000B1081BB05B13160B94506F10406E9D1FE
:100BA0002DB3DFF81CE100238EF800301E460F2223
:100BB00058F82200013A60B190F804A08178BAF1A7
:100BC000FF0F66D14FF000078E4207713CBFCEB2D7
:100BD0000123511CECD10BB18EF800600F2640F6BA
:100BE000FF6A58F82670002F65D1013EF9D2601BCC
:100BF00005B0BDE8F08F9DF80AC0BCF1020FE646D3
:100C000001F1050238BF4FF0020E0EF1FF3004EB88
:100C100042040444CEF100002040BDF80840644482
:100C2000013CCCF1000C04EA0C04B4F5803F4FEA1F
:100C3000420301D3F82192E775B1C31A336099706A
:100C40001C8083F803B09DF80C201A71019A1A8158
:100C50004FEA124CA3F806C004FB01049CE758F8C5
:100C60002C90B9F1000F06D099F804B0D34504BF19
:100C700099F802904F440CF1FF3CBCF1000FEEDA02
:100C80003944FF29A0D90BB18EF8006040F227113A
:100C900065E794460027F0E707EB41033846A3F8E1
:100CA0000AA0FFF71BFF09F10109BB785FFA89F180
:100CB0008B42F1D899E74FF00009F6E7A40F002026
:100CC000A00F0020034B03EB8003586C00B1807829
:100CD000704700BFA00F0020F8B54FF6FF730380E8
:100CE000184B03EB81030546586CB8B1867803793D
:100CF000B3FBF6F206FB1233DBB219460A1D00EB1A
:100D00004202B2F902705488002F09DB0131B1FBB5
:100D1000F6F206FB1211C9B28B42EFD10020F8BDEA
:100D2000FF29FBD0C4F30E03C4782B8024B94FF401
:100D3000D5711720FFF780FB5380BDE8F8400FF016
:100D40002FB900BFA00F00201D4B03EB810370B52E
:100D50005C6C054644B3030404D54FF4DC711720E2
:100D6000FFF76AFB014620460FF0FCF8FF2801461A
:100D700004D02046BDE870400FF012B9A078B5FB52
:100D8000F0F300FB1353DBB219460A1D04EB4206D5
:100D9000B6F90260002E09DB0131B1FBF0F200FB75
:100DA0001211C9B28B42F0D1002070BDFF29FBD0D7
:100DB0008B4204EB42021CBF0023E3705580D8E74E
:100DC000A00F0020094B03EB810310B55C6C0146BA
:100DD00020460FF0C7F8FF28014604D02046BDE8A2
:100DE00010400FF0DDB8002010BD00BFA00F0020A4
:100DF000F8B5104B03EB810307465C6C01462046B7
:100E00000FF0B0F8FF28054611D0E688238953EA91
:100E1000064606D0014620460FF0C2F80146384685
:100E2000B04720462946FFF759FE0020F8BD0520AF
:100E3000FCE700BFA00F002038B50E4B827903EB12
:100E400082030446586C08B9052038BD8278E179E0
:100E50009142F9D24B1CE37100EB41035D89B3F978
:100E60000A30002BF3DBA5800FF09AF820600020F9
:100E7000EBE700BFA00F002070B5044610F00300A0
:100E80000E4603D04F211820FFF7D6FAFFF706FED3
:100E9000054624B1034831460460FFF7FFFD2846AC
:100EA00070BD00BF241000202DE9F14FDFF870B0B5
:100EB0009DF828A09DF82C901E46DBF800300746D0
:100EC0000D4690461BB961211820FFF7B5FA52462E
:100ED000092140460EF0B6FE4A4684B2092130464A
:100EE0000EF0B0FE14FA80F1DBF800000FF00FF8FE
:100EF000386018B9286001B0BDE8F08F04442C6058
:100F000038685346414609220EF055FE28684B4684
:100F10000922314601B0BDE8F04F0EF04CBE00BFD3
:100F20002410002070B50E4604460EF09EFE0546C5
:100F300030460EF09AFE044B2A1821461868BDE888
:100F400070400FF008B800BF24100020014B186853
:100F50000EF0D1BF241000201F2AF8B50446134616
:100F60000ED89200033222F00303B3F5803F2DD256
:100F7000184DACB1A00710D05F210920FFF75CFA33
:100F8000FF2B4FEA420204D9FF339A42A8BF1A4608
:100F9000E8E77C2AB8BF7C22E4E729706C602B81EB
:100FA00022F0030201EB81031204D80001276B68D1
:100FB000120C0025EEB28E4200D3F8BD14B12618F3
:100FC0001F705E60104401352833F3E74FF0FF30A7
:100FD000F3E700BF2810002038B5144A147853688E
:100FE0000021C8B2844203D8AB210920FFF724FABC
:100FF0001846013105782833002DF2D00021817088
:1010000001241289447044688161C161920800F131
:101010002001051D21F8022B994245F8044B144488
:10102000F8D100234361037038BD00BF28100020B1
:101030000A4B1B89B3F5FF7F4FEA930006D25A088B
:101040009B1A9BB2984238BF18467047B3F5EE6FB3
:1010500001D8FF22F4E740F27263F3E72810002082
:101060002DE9F8434B7880460C4602F0040602F066
:10107000FB07D3B1DFB12E4BD4F804901D89B7BB69
:1010800001236370AD08A761E76104F120034A46BC
:10109000211D04F1280023F8025B984241F8042B3B
:1010A0002A44F8D10023636101E0002FE3D0FF233D
:1010B000A370002E18BF0226A3191B7D032B03D19A
:1010C000022F1CBF0136F6B2A31901221A7506F1D0
:1010D0000C0204EB8606002324F812307268A37019
:1010E000C8F80020A8F804304046BDE8F883002185
:1010F00014226170A0180DF0C9FFB5F5FF7F0FD263
:101100006B08ED1AADB209EB0502C4F80490258412
:10111000A2606384C4F80C90A5842261E384C6E7CE
:10112000B5F5EE6F4FF0FF03EBD940F27265EAE7D9
:10113000281000202DE9F84305460C46F72005212C
:1011400091460EF07FFD061E22DB1DB914FB06F052
:10115000BDE8F88315F0030703D098211920FFF7A5
:101160006BF9DFF83480C8F81050A8F81460A5B205
:10117000BBB29D42EAD9B8F814C0D8F810004B466B
:1011800007FB0C000522F7210EF015FD0137EFE7F4
:101190004FF0FF30DCE700BF3C10002007B5CDE981
:1011A00000230B4603490246081D0FF032F803B036
:1011B0005DF804FB5410002013B5064CCDE9002364
:1011C0000B46024604F1080104F10C000FF021F86F
:1011D00002B010BD54100020134B012200214FF02B
:1011E000FF309A60C3F80012C3F80803C3F8001573
:1011F000C3F804259A60C3F80803C3F80015C3F8C0
:1012000004250A490A4A03F580334FF40040C3F825
:101210000825C1F88000BFF34F8FBFF36F8FC1F86F
:101220008001C3F80825704700F0004000E100E0AD
:101230000000F63F8C46322300B50CF8033B054B0B
:101240008E4607CBCEF80300CCF80410CCF808206B
:101250005DF804FB7010002010B5154C09F064F91E
:1012600008F082FA636A608C00219847237E9BB95C
:10127000104B628C93E8030004F0ACFFE36A18881B
:1012800004F0D2FE636B94F8301094F83100984764
:10129000002384F8383010BD94E8070004F10C03F3
:1012A00083E80700044904F1190010F064FFDFE748
:1012B000641000208C10002035120000034B93F8BE
:1012C000383003B97047FFF7C7BF00BF6410002074
:1012D00008B540F267410620FFF7AEF808B5094BA4
:1012E00093F83820022A07D1DA7A42F00102DA7242
:1012F000BDE80840FFF7B0BF40F22D212720FFF7DF
:101300009BF800BF6410002070B5364E96F8283068
:1013100005460BB1012825D001292AD8336C28466F
:101320009847044628B396F8303013BB96F8283017
:1013300013B31DBB96F84420D106C2F300152DD47B
:10134000F26C316D1278C2F3001201B382F0010425
:10135000BBB1738F9A0715D5F36BDC78023C18BFCD
:10136000012407E0738F1807D6D5F36BDB78022BC7
:10137000D2D10124204670BD012DDBD000242046AF
:1013800070BD738F002BF4D1002DF3D0F6E7B6F8C3
:1013900054100029DAD0002BF3D0DAE7F16B0A7889
:1013A00002F00302032A02D1CA78022A18D0B06CD4
:1013B0000EF0E4FC48B9F36B1B7803F00303032B36
:1013C00006D196F828300546BAE796F82830B7E7F0
:1013D00003F07EFA80F0010596F82830EDB2AFE711
:1013E0000025ADE76410002070B5264CE56AE26C7C
:1013F00095F88C30A265064694F85C000BB1043079
:10140000C0B295F86D100EB9FF2831D008F0BAFDC2
:1014100095F88C3033B3206E09F0A0F994F8283099
:10142000D5F8E820216EA06D6267003B18BF01234C
:1014300084F87C30D5F8EC30A36708F039F946B968
:1014400095F86D30033B012B94BF2820002009F054
:10145000F3F995F86C10002009F056FA022384F88D
:10146000383070BDA06D09F079F908F07DF9E6E734
:1014700095F86C208A42CDD008F084FD95F88C3028
:10148000C8E700BF641000202DE9F0413C4C94F8FF
:101490003830E56A012B82B06BD15FFA83F895F89A
:1014A0007C3006460F4673B1638F002143F004037E
:1014B000638785F87C10636A0420984794F8283085
:1014C0000BB185F87E80E16B0B7803F00303032BEF
:1014D00030D04B7853B3022385F8823095F88C30A6
:1014E000EBB1E36A94F8282093F86D30003A18BF06
:1014F0000122013BDBB284F87C20D5F8E82062674A
:10150000032BD5F8EC20A26794F85C2036D81D494F
:101510000020CB5C00901C49012008F051F806B96E
:10152000E7B902B0BDE8F041FFF796BE012385F8A8
:101530008230D3E795F8823063B9638F43F00203BA
:1015400063870220636A9847E16B0B7803F003031B
:10155000032BBED1032385F88230BFE731463046E6
:10156000FFF7D2FE0028DCD102B0BDE8F041FFF762
:101570003BBF40F29D412720FEF75EFFFFF7A8FE2C
:101580006410002008590200C810002070B5824C79
:10159000E56A94F85C3095F88C2082B000218DF8D3
:1015A00005100AB10433DBB295F86C1010B9FF2BAB
:1015B00000F0B180FF2008F0E5FC95F88230032BA5
:1015C00000F2E580DFE803F0021C807094F8BA3086
:1015D000ADF806307148A5F85C3003F053F90028E7
:1015E00040F09F80A06C0DF105020DF106010EF098
:1015F00064FBE06320B195F8C730002B00F0A980B0
:101600006748E06395F883200378D20002F008026F
:1016100003F0F303134395F88420920002F00402D0
:10162000134303F0EF0203F00303032B027002D114
:10163000C378022B11D0A06C0EF0A0FB48B9E06B70
:10164000027802F00303032B07D003F041F90028CE
:1016500078D1E06B027842F01002027095F88B307E
:1016600013B14378002B41D109F078F808F07CF8E9
:10167000E66B03F06BFF20B1337803F00303032B19
:1016800063D095F86D10012009F03EF9E36B454AEF
:1016900018889978A4F84400012384F8BC3091702C
:1016A00084F8383002B070BD3C4803F0EBF80028F5
:1016B00063D0E06BC3781B2B14D1012105F110001E
:1016C00008F092FCE06B0DE0B5F85C30A06CADF872
:1016D00006300DF105020DF106010EF0EEFAE063A1
:1016E00000284FD0012384F8BB308BE7206E09F02F
:1016F00035F894F82830D5F8E010D5F8E420616783
:10170000B3FA83F35B09E16B206E84F87C30A26747
:1017100007F0CEFFACE795F86D308B427FF44AAF0F
:101720004BE7638FE16B626A43F480734FF4807020
:1017300063879047E06B012185F87D10C3781B2BF0
:10174000D0D1BBE7E06B027887E701200AF0E0FC2C
:1017500097E79DF8053043B1BDF8061010F0B2FCD4
:101760000123E06B84F8BB304CE703808370E06BAF
:10177000012110F09FFBE06BEEE740F2D72127201C
:10178000FEF75AFE40F2CD212720FEF755FE40F22B
:10179000E5212720FEF750FE64100020A010002055
:1017A000EC100020A81000202DE9F04FB84C94F860
:1017B0003830E76A87B00022022B049240F014828E
:1017C000638C0D4613F04001804606D1636A4020C9
:1017D0009847638C43F040036384B8F1000F5CD0FA
:1017E00097F88C30002B40F05B81D4F858A09AF821
:1017F000013099B2A4F85410002940F06781002309
:1018000023659AF80060638C97F88310C6F3800212
:1018100043F400739142638400F0F780D4F82C9075
:1018200099F88220FAB1022A00F0B88194F82830A1
:10183000002189F8821023B199F87E30002B40F006
:10184000A38199F87D30002B40F0808199F8833096
:10185000D4F858A0012B0CBF0023012389F8833052
:101860009AF80060638C97F88410C6F3C00243F4C2
:101870000063914263844FF0000900F0CE8000269F
:1018800003F064FE30B39AF8003003F00303032B37
:1018900020D101200AF03CFC1CE097F88C20002AA3
:1018A00040F01C8143F48063638497F86D3094F8B2
:1018B000C620033B0132012B84F8C62005D903F072
:1018C00045FE8146002800F0D68001200AF020FC69
:1018D0000026B14697F88B3013B394F8283097F868
:1018E0007620B3FA83F35B0984F87C3097F86C3088
:1018F000013B002ADBB2D7F8E020626718BF042062
:10190000D7F8E420A26708BF0020032B00F2718102
:10191000604A6149D35C00220092FB2207F050FE2E
:1019200045B994F8C6100120FFF7EEFC05460028E3
:1019300000F0D88009F03CF80125002E3BD1B9F128
:10194000000F09D094F82830002B40F09680B4F8AE
:1019500009300133A4F80930B8F1000F4AD0B4F8C7
:10196000053000220133A4F8053084F8C6204B4826
:1019700004F048FB049830B10EF09DFAE16A0022B1
:10198000027203F02BFD36B1E16A002333720C22A0
:10199000304603F0F1FC002D32D1638C1B0607D4D6
:1019A000636A294680209847638C43F080036384F0
:1019B00007B0BDE8F08FA16D236D4E78002B00F0CD
:1019C0001A81B4F85420184603320DF0CBFB0DF108
:1019D0000E0205A9A065D4F8C0000EF082FA0598A1
:1019E0000EF069FA314601220646D4F8C0000EF026
:1019F0000FFAA4E7B4F807300133A4F80730B6E7CC
:101A0000FFF72AFC07B0BDE8F08F97F88410C6F303
:101A1000C0029142C1467FF432AF06F00306032EA6
:101A2000D4F82CB064D143F480536384638F0120D5
:101A300043F00103514663878BF87C00636A984743
:101A4000D4F858A000269BF88430013B18BF01232E
:101A50008BF884309AF80130002B3FF411AFDBF89B
:101A6000E8300133CBF8E830DBF8EC3043F1000329
:101A7000CBF8EC3004E706462CE7B4F80530B4F8B0
:101A80000710B7F880200B4313433FF465AF5EE7C0
:101A90006410002008590200C81000208C1000209B
:101AA00007F07EFED4F858A09AF8013000287FF4A1
:101AB000A0AE002B65D09AF8002097F88410C2F3EE
:101AC000C00291427BD099B2A4F85410D4F8C0005F
:101AD0000EF075F9D4F858A0206592E607F0A0FE44
:101AE000638CDFE6FFF752FD002E3FF428AF62E77C
:101AF000002EA8D09AF80160002EA4D043F48053A1
:101B000063849BF88C6008F00FFA042894F8C430C2
:101B100006D1002E14BF1B221F22934228BF13465A
:101B2000D4F858A09AF801209A424ED8266D002E7B
:101B30003FF4A6AE94F8C530002B53D0636A002161
:101B4000202098470026D4F858A099E6002689F866
:101B50007D6002F0A7FE002852D0638F43F0080397
:101B600063873146636A08209847D9F8E03001332B
:101B7000C9F8E030D9F8E43043F10003C9F8E430A3
:101B800064E6A4F854303AE6638F89F87E1043F097
:101B9000100363871020636A984752E6A06C04A97B
:101BA0000EF0AEF888B3D9F8E0300133C9F8E03070
:101BB000D9F8E43043F10003C9F8E43036E60123F4
:101BC00084F83130FFF748FBF2E694F8303001201A
:101BD00043F0100384F8303000260AF099FAD4F864
:101BE00058A04DE646462EE740F211512720FEF759
:101BF00023FCFFF76DFB40F28E412720FEF71CFC13
:101C000040F21C412720FEF717FC40F20541272037
:101C1000FEF712FC70B50D4B0D4C0E4A1A6094F88D
:101C200038301BB1DE212720FEF706FC03F0FF024F
:101C300006460D46227604F0C5FA012104F188001B
:101C400010F038F9E664256670BD00BF2805002055
:101C5000641000200021000010B5074A92F83830C7
:101C600013B10C24204610BD03F0FF04147604F0D9
:101C7000A9FA204610BD00BF64100020024B0122CB
:101C800083F8C520704700BF64100020F0B5C24C37
:101C900085B002AD85E8030094F838000A9E00285C
:101CA00040F09781002A00F09481002B00F0918190
:101CB000002E00F08E8100F0FF0184F8C51084F83A
:101CC000301084F8C61084F8311084F8BC1084F801
:101CD000BB106187618495E80300236404F1280345
:101CE00083E80300E56A6262666308F0DDF907F0E5
:101CF0003BFD95F9740008F0D1FAA86A08F012FDCE
:101D0000286A08F0D1FA95F89C0008F0D7FA95F8FF
:101D10007630002B40F0B380962008F0EFF894F86E
:101D20002800002800F0B380E36A93F8B831002B54
:101D300040F0028195F86D209D21012008F09CFB68
:101D4000964B974E186808F0F3FC6B69D5F8F410C1
:101D5000D5F8F820D5F8F000A364D5F8FC30AF69C9
:101D6000C4F8C0700FC6E36AD5F8001193F8862056
:101D7000C4F87D10D5F80411C6F80D10A2F12601A3
:101D8000012940F2948093F88710262900F08F8073
:101D9000213A012A40F2F080242900F0D08093F803
:101DA0006C60032E08BF042605F13407314638461F
:101DB00010F09DFA31460FF057FDB5F8403095F818
:101DC0006D100246934228BF1346384684F8BA3055
:101DD00010F053FA95F86D1095F88C70B5F84860CE
:101DE000042908BF03210FF03FFD0FB9043080B272
:101DF000B04228BF3046C6B284F8C46003F0A6FBE8
:101E0000002840F08B8094F8280084F85C6000285B
:101E100066D195F88B30EBB195F86C3095F876106B
:101E2000D5F8E0206267013B0029DBB2D5F8E42059
:101E3000A2674FF0010118BF0420032B84F87C1027
:101E400000F2CC80574A0021D35C0091FB22544918
:101E500007F0B6FB0120FFF799FB0023C4E900332C
:101E6000A3602B6F2988B5F8800095F89C206080CE
:101E7000218022710BB101221A6005B0F0BD4D2006
:101E800008F03CF894F8280000287FF44DAF95F84E
:101E90006C20444B03EB42039988434B01F5FA71E4
:101EA000A3FB013189096E3108F0E6FA48E794F89E
:101EB0002820002A39D193F8FA2193F86C60002A7F
:101EC0003FF472AFF31E012B63D9D31E012B60D9EF
:101ED000012E3FF469AF012A14BF0226012663E7F1
:101EE00095F88C30B3B195F86D30D5F8E820D5F879
:101EF000EC10A167013BDBB20120032B626784F881
:101F00007C006BD82749CB5C0021009132462449E4
:101F100007F056FB0120FFF767FA9EE703F01CFB72
:101F2000B04238BF3046C6B26DE793F8922293F8BC
:101F30006C60002AC6D137E708F0A4F8FAE694F8F6
:101F40002820002A3FF42BAF93F8262193F8651040
:101F500093F86C6002EA01035A071AD413F00102E5
:101F60002BD19B077FF520AFF31EDBB2012B10D9DD
:101F7000012E18BF022617E72429E0D094F8282064
:101F8000002A3FF40CAF93F8262193F86C605007B9
:101F90000CD5042608E700BF6410002028050020A7
:101FA000C810002008590200D34D621012F001033E
:101FB00009D191077FF5F8AED6E7033E012E8CBF1D
:101FC00016460426F0E6033E012E8CBF1E4604266C
:101FD000EAE640F26D112720FEF72EFAFFF778F9B6
:101FE00008B5124B93F8382092B193F8282022B903
:101FF00093F83830012B14D108BD93F83820022A09
:102000000AD1DB6AD3F8D001BDE8084008F0E0BB94
:10201000BDE80840FFF720B940F20F212720FEF766
:102020000BFA40F20B212720FEF706FA641000207D
:10203000FFF712B9014B1876704700BF64100020FB
:10204000014B93F8BC00704764100020034B93F8D9
:10205000BB0010B9588CC0F30030704764100020EA
:10206000024B588CC0F3C020704700BF64100020A2
:10207000014B93F8C6007047641000202DE9F04131
:102080001E4F8207FE6A82B0044613D4E3070ED5C2
:10209000D6E93A3296F88410013342F10002012960
:1020A000C6E93A320CBF0023012386F8843002B01F
:1020B000BDE8F0813B6DE3B1B7F854200D46B96D32
:1020C0001846033291F801800DF04CF80DF1020230
:1020D00001A9B865D7F8C0000DF003FF01980DF015
:1020E000EAFE012228604146D7F8C0000DF090FEBC
:1020F000CCE740F28E412720FEF79EF964100020C5
:10210000DD120000A917000089140000BD120000B4
:1021100008B540F2F2310620FEF78EF92DE9F843BA
:10212000002800F0E1800446072900F2D380DFE8B0
:1021300001F0AB2424A7D11F9ECD0146204610F00C
:102140001AFFD4F8443100F1E5059D4240F2C78002
:10215000E81A322838BF322003210CF07DF8C4F889
:1021600044510646204610F0CEFF002E00F09D8020
:102170002046BDE8F84310F0C7BF10F04BFFD4F87D
:102180001421002305460E4684F8403184F8493175
:10219000BAB150EA010314D0CA00C3001B1A42EAC4
:1021A000507262EB0102D4F830115B18D4F834118C
:1021B00042EB0102D4E95401834272EB0103C0F007
:1021C0009180022304F5A07784F8483138460BF05B
:1021D00095FA002800F08C8094F8603103F0FF013C
:1021E000002B6BD1D4E956026FF000439A4208BF2E
:1021F000B0F1FF3F13D02046D4E9549810F0BBFE55
:10220000D4F85831D4F85C21B3EB090300F1E500B0
:1022100062EB08021B1A62F10002002A4BDB94F801
:10222000100139460BF05CFB00286BD0D4E9540157
:10223000D4E94A32834272EB01071FD255EA0607FE
:102240001CD0C01A61EB020133462A460CF080FE16
:1022500005FB01F3D4E94A2100FB0636A5FB005338
:102260005519334443EB0103C4E94A5306E090F89F
:1022700010010BF01DFA002384F83831BDE8F88313
:10228000BDE8F84308F0A8BB05F038FED4F84401D7
:10229000CB380BF04FFF80B3204610F0F8FE00283B
:1022A0003FF44BAF204610F02EFFD4E95423C4E98D
:1022B0004C23BDE8F883204605F028FE94F8100171
:1022C0000BF0F6F9002384F83831AFE7FD21302018
:1022D000FEF7B2F840F201113020FEF7ADF8C4F875
:1022E0004451DFE701236DE7E0213020FEF7A4F839
:1022F0004FF4D3613020FEF79FF840F25A2130208E
:10230000FEF79AF840F29C613020FEF795F800BF86
:102310002DE9F04F04468BB04FF00009029390F87E
:102320006DB0CDF818900E4690460FF0B4F894F8C2
:10233000B9310B2B00F20684BF4F37F8135094F8D5
:1023400087302844442B85B215D094F88620442A3F
:1023500011D0A3F10E02B2FA82F252090392B8F13F
:10236000000F40F0BF8294F8FC21032A00F0108394
:102370000123049307E0B8F1000F00F08E800123E1
:10238000CDF810900393B4F848A2B4F88090A6EB6F
:102390000A0A0FFA8AFAA6EB0909BAF1000F0FFA36
:1023A00089F904F50678C0F29382029BA34A127859
:1023B00002F0FF005AB9074694F8FC21032A00F204
:1023C000DD83DFE812F041010101C60173000593CE
:1023D00009F07EFB059B0028EDD0B4F8E821012A26
:1023E00040F2208394F8FC21022A00F01B8394F829
:1023F0001202002840F0168394F87620002ADAD1E1
:1024000094F8B9210B2A00F29D8337F8125094F802
:10241000FC2105F5C865012AADB240F0598394F856
:102420008A20032A40F08183D4F8F401E76A074444
:102430002946059309F010FB02463846D4F8F0719E
:10244000C4F8F021D21BD4F8F871294602FB07F733
:1024500009F002FBD4F80022C4F80002801A0744F5
:102460002946E06909F0F8FA94F87620059B02B154
:102470000230B4F8D421D4F8F8114A44C943A2EB8D
:102480000A020A44D4F80412C4F80402401A00FBF9
:102490000277012284F812228EE794F8FC31032B94
:1024A00000F07C820123CDE903336CE7E1690298F7
:1024B00001FB0AF2002800F01882B4F8D451002D74
:1024C00040F0138284F81352D4F8040200FB1A2A55
:1024D00094F88620CDF818A0262A00F0A58294F85A
:1024E0008720262A00F0A082002B3AD0CDBBD4E969
:1024F0008C23D4F83812D4F83CC28A4273EB0C0314
:1025000080F0318394F86D30DA1E012A40F2D382D4
:10251000184608F0C3FD4A4DD4F8381200F5234E92
:102520000EF1A10EA5FB0E3ED4E98C2394F86D00AC
:102530008439A0F1030C8A1A9244BCF1010FAAEB72
:102540009E1A40F2158308F0A9FD00F2E731A5FBC1
:102550000131D4F80402B4F8D45189095144103936
:10256000069105EB090AABF1030300FB0AFADBB2A3
:102570000AF1300A012B4FEA4A0A40F29982584682
:1025800008F08CFD2E4B00F52340A130A3FB00305A
:102590004FEA9019584608F079FD0AF17405274B67
:1025A0004D442844586094F87630002B42D0254A98
:1025B000E069514606AB0FF09CF9204B84F81302FA
:1025C000069A5868E1692BE1D4F80402E269B4F88C
:1025D000D431D4F8F81194F86DB0258E121A9944BC
:1025E0000AFB02F2D4F800320692D4F8F02130331C
:1025F00002FB0133C943894400FB0939ABF10303F2
:10260000012B4FEA490905F1740540F2B68158469D
:1026100008F044FD0A4B00F52340A130A3FB003035
:102620004FEA901A584608F031FD4D44034B55448B
:1026300028445860069A8AE0185902002C1100209C
:10264000D34D62103011002094F86D1094F8CE0133
:102650000FF032F98146E06A2946484409F0FCF956
:102660002946C4F80002E06909F0F6F994F87630DA
:10267000002B40F0D581C4F8040207A908A808F08F
:102680009FF9079B0093D4E99001DDE908230CF042
:102690004DF894F86D3005930546184608F0FEFC99
:1026A000059BDFF8E4A2033B00F55F40012B00F13E
:1026B000410094BF28210021AAFB003001EB9011BA
:1026C000803120460FF076FED4F84C32E26A94F85E
:1026D0006D000693059208F0E1FC4AF2A13B00EB85
:1026E0000B03AAFB0331069B059AD4F80002943B26
:1026F00013441B1A4B445B1BA3EB9113069394F8F2
:102700006D30B4F83090DA1E00F13005012A4FEA3E
:10271000450509F1960940F22D811846059308F008
:10272000BDFC8344AAFB0B3A059B4FEA9A1A184654
:1027300008F0ACFC4D44954B069A5544284458602B
:10274000D4F84C32D31AB3F5917FC0F00282E1691C
:1027500066E0E36AD4F8F4012946184409F07CF9EC
:102760002946C4F80002E06909F076F994F8763059
:10277000002B40F0538194F86D90C4F80402484651
:1027800008F08CFC804D00F55F40A9F10309B9F118
:10279000010F00F14100A5FB003094BF282100216A
:1027A00001EB9011803120460FF004FEB4F8D431D3
:1027B000002B00F0A280D4F8F431E26AD4F80002D1
:1027C00094F86DA013441B1AAAF103010693C9B231
:1027D000D4F8F031D4F8F821B4F8309002FB0305B6
:1027E000303501294FEA450509F1740940F2C880E6
:1027F000504608F053FC644B00F52340A130A3FB86
:1028000000304FEA901B504608F040FC4D445F4BAF
:10281000069AE1695D4428445860012384F8FC313C
:10282000D4F804526FF4AD734D1B1D44D21BD4F881
:102830004072D4F844320692854228BF0546BA1841
:1028400043F10003C4F82C320023C4F8D051C4F87B
:10285000282284F8183204F134000FF00CFDD4E97A
:102860008A230544C4E99023C4F81C52A4F84862A2
:1028700005F0E0FF20B1D4F81C321E33C4F81C323E
:10288000B4F8C011039A8E1B002336B29E4284F81E
:102890002032C4BF022384F82032002A40F0D080C6
:1028A000029A002A40F0D08094F8FC31002B40F0CE
:1028B000EC8094F8140241460BF012F8002800F066
:1028C0004381049B84F8103200200BB0BDE8F08FE8
:1028D000D4E98C01002384F81332C4E99001CA467C
:1028E000012363E5CDF810904DE594F8130200281C
:1028F00000F0DB80254B586892E7029B002B3FF4E9
:102900005AAFD4F8F431E26A94F86D0003EB020B8D
:1029100008F0C4FB00F52340A130A5FB00304FEACE
:102920009019D4F80002D4F8382294F86DA0ABF1D5
:10293000940BABEB000B9344AAF10301D4E98C2375
:10294000C9B20129ABEB020B40F2BE80504608F041
:10295000A5FB94F86DA000F2E732A5FB0235AAF1C1
:102960000301D4F80002AD09C9B2ABEB09022A4455
:1029700006922DE74FF0650AD9E64FF0650A51E659
:102980004FF0650B3FE700BFD34D62102C110020C4
:102990000E2B18BFCDF80C807FF4EAACB4F890325F
:1029A000B3427FF47FADB4F8D421B4F84A32134473
:1029B000C4F8F831D4F80432C4F8F031E369C4F84B
:1029C000F431204606F0B4FCD4F8982294F8A432EE
:1029D00041F64B5842458CBF4FF000084FF00108BC
:1029E000002B40F08C80E3699A4204D0208810F0DC
:1029F000C6FDD4F89832E361D4F89432E362B4F8B7
:102A000092322386D4F89C326362022384F8FC312C
:102A10000123CDE9033384F87680B4E40230AAE6DA
:102A2000023028E60027C7E4B4F89022B21A120454
:102A30003FF55AAD94F89322002A18BF934653E508
:102A4000029A002A3FF435AFB4F8E821D2B1B4F8C5
:102A5000EA0194F8EC1100FB01118A4200F1010037
:102A60007FF727AF002B3FF424AF002384F82032F8
:102A7000A4F8EA0102F076FD00F00700013084F8C6
:102A8000EC0116E7A4F8EA2113E7E169D4F804326F
:102A90004046C91A0EF0B7FE80B200283FF409AFD5
:102AA000149B9BB1188001200FE7B4F8D4510BE5BB
:102AB0004FF065096EE5D4E98C23A1F1E90CACEB8C
:102AC000020C3C21E24449E53C254EE70120FCE6AE
:102AD000E0690593294608F0BFFF94F87620059B2E
:102AE00002B10230B4F8D471D4F80422C4F804025C
:102AF0004F44A7EB0A07801A00FB07F7C9E42088B8
:102B000010F03AFD50B3B4F89032B4F8A0226286C7
:102B10004FF00008B4F8A2224381013B0382828176
:102B2000D4F89832A0F80E8065E794F86D1094F808
:102B3000CE01E76A05930EF0BFFE059B0744D4F86B
:102B4000F40175E4FFF7E4FA40F287513020FDF715
:102B500073FC40F2D2413020FDF76EFC40F232713E
:102B60003020FDF769FC40F226513020FDF764FC6F
:102B7000B4F8D451D4F804023C21EFE440F23E51C1
:102B80003020FDF759FC00BFF0B585B0002800F0FB
:102B900010810446072900F2F380DFE811F0950068
:102BA000080008007E00F10083008B00ED0010F0AB
:102BB000E4FED4E98C23801A61EB0301012871F152
:102BC0000003C0F2FF806FF00102002382428B41BC
:102BD000C0F20181E3690BB1B0FBF3F394F88720F5
:102BE000442A00F09B800E2A94F8861000F096800C
:102BF0004339012940F29280B4F88010B4F80E22D3
:102C00000B449BB2D11A090400F1C880531C9BB23B
:102C1000A4F80E3294F81132B4F80E12002B00F022
:102C2000B380B4F8BA00B4F880306D4FB4F84A22DB
:102C30000344B4F8B800013B1B1A9EB23B68013252
:102C4000A4F84A2202AD53B1013989B200222046CC
:102C50009847B4F80E12014489B2A4F80E12731A00
:102C60001B0462D4002300951A462046FFF750FB50
:102C700040B3012840F0A180B4F80E12B4F8C0317E
:102C8000CA1A10046ED4BDF80830194489B23B68E2
:102C9000A4F80E12002BD7D1E1E705B0BDE8F04053
:102CA00007F09ABE012009F033FA05B0BDE8F04004
:102CB000FFF7BEB990F8FC31042B40F08880002368
:102CC00080F8FC3105B0F0BD90F81032D3B1B0F807
:102CD0000E22B0F880309A4263D0D31AA0F8C631E1
:102CE000A0F88020D4E98A232046C4E98C2306F08A
:102CF0003FFA94F8CB31002BE4D005B0BDE8F040AA
:102D000010F0B3BBB0F80C32B0F88010B0F80C2261
:102D1000A0F880205B1AA0F8C631E3E7B4F80E12E1
:102D2000013189B2A4F80E127BE794F88A2003944B
:102D3000002A0CBF3E220822012384F8A92028463D
:102D40008DF8083002F020FF204610F090FB0023A1
:102D500084F8FC3194F814020AF0AAFC202384F8C9
:102D60001432AFE7BDF80820114489B2721A12F488
:102D7000004F18BF19468AE7D4213020FDF75CFBCD
:102D8000D8213020FDF758FBB4F8C4318B427FF4D2
:102D900048AF013189B2A4F80E1242E701339BB269
:102DA00036E7B0F8C431A0F880309B1AA0F8C631DD
:102DB00098E7A8213020FDF73FFB40F26A61302000
:102DC000FDF73AFB40F212613020FDF735FBCE21D2
:102DD0003020FDF731FB40F213613020FDF72CFB72
:102DE0002C0500202DE9F043D0F814310026D0E95D
:102DF000548983B080F8186105460F4683F8CE21C8
:102E000080F838610121D0F8140101F0A1FFD5F854
:102E10001441C4E98C8995F8103184F81432C4E95E
:102E20009089C4F84C7284F8FC61A4F84862334677
:102E30000096324631462046FFF76AFAD0B90123A0
:102E400084F8FC31C4F8F801C4F8F001A4F80E02CB
:102E5000A4F80C0284F81102B4F88030A4F84A02F5
:102E6000013BA4F8803007F007FC03B0BDE8F04355
:102E70000AF08EBA4FF4FE713020FDF7DDFA00BF84
:102E8000D0F81401704700BF2DE9F04385B000234E
:102E90000322CDE90033FF268DF806206846FDF7B2
:102EA000CBFF044620BB009D95F83831002BF5D0B0
:102EB00085F860610121284610F028F995F838312D
:102EC000002BEBD095F810010AF06CFF95F810017B
:102ED0000BF0EAFA95F810010AF0EAFB00283CD062
:102EE00085F838416846FDF7A7FF04460028DAD088
:102EF000DFF87C80012388F80830002502264FF691
:102F0000FF771AE0029BE3B193F81422202A18D02D
:102F10001888B8421BD00221FDF754FF814608B340
:102F200090F814020BF0C0FA99F8140289F8FC41E9
:102F30000AF0BEFB202389F81432CDE902558DF842
:102F40000E6002A8FDF778FF04460028DAD00023BF
:102F500088F8083005B0BDE8F0834FF4F4713020F4
:102F6000FDF76AFA4FF49A713020FDF765FA00BF59
:102F70002C110020054B0022012142F210705A72E0
:102F8000588119701A72FFF77FBF00BF2C11002003
:102F90002DE9F84390F83831002B77D10446884664
:102FA00001465648154603F0FF070AF04DFB20285E
:102FB00006466BD05822394604F588700CF066F846
:102FC00084F81061C4F81481FF2384F83831B8F113
:102FD000000F06D002F0DEFA00F00700013088F89A
:102FE000EC0102234FF00008A4F8483184F8408136
:102FF00008F084FD00F19E062046B6B210F047F8B6
:10300000002847D00EF047FA00F5CD6189B2284676
:1030100008F022FD2844C4F8440110F0AEFC30183A
:1030200041F100014FF00109C4F85001A4F82680D5
:10303000C4F8541184F81891204610F03EF8002886
:1030400046D0494620460FF096FF6FF49C631D441E
:103050002D1AC4F81C514FF0FF326FF00043C4E941
:10306000562394F8100104F5A0710AF039FC0028E9
:103070003FD0D4E954232046C4E94A23C4E94C2371
:10308000002110F043F83846BDE8F8830C27384695
:10309000BDE8F883014620460FF06DFFDFF8608041
:1030A000E530C4F84401B8F80A0008B1E08CB8B9BA
:1030B000064410F062FC361841F10001C4E9546185
:1030C000002DC8D0AE1941F10001C4E95661C8E72E
:1030D000484610F0F3F8E53D2D1AC4F81C51BAE744
:1030E00002F058FAB8F80A30B0FBF3F202FB130012
:1030F000DEE74FF4E5713020FDF79EF91D21000059
:103100002C11002090F838310BB90020704710B511
:103110000446FF2380F8603101210FF0F7FF94F897
:1031200038310BB9002010BD94F810010AF03AFEB6
:1031300094F810010BF0B8F994F810010AF0B8FAFD
:1031400020B1002384F83831002010BD4FF4F47111
:103150003020FDF771F900BF014B5872704700BF76
:103160002C11002090F8602182B910B502F0FF0404
:1031700090F8182112B90122104610BDD0E947314C
:103180009942F9D904F0C2FE2246F5E70022104622
:10319000704700BF08B506F0CDFE044BDA688242E6
:1031A0002ABF187A002080F0010008BD2C110020F1
:1031B00008B540F2FF110FF005F9B0F5296F28BFEF
:1031C0004FF4296080B208BD90F8CB31002B75D147
:1031D000F0B503F0FF0590F8FC31032B85B00446F1
:1031E00001D005B0F0BD10F0C8FBD4E98C23801AE3
:1031F00061EB0301012871F10003F2DB6FF00103C1
:10320000834275EB01035CDBE369B4F88020002B9B
:1032100055D0B0FBF3F080B2531C184480B2A4F830
:103220000C02B4F80C22B4F8C4319B1A1BB2002B68
:10323000D7DD94F814020AF0B5FD0028D1D0FF23A1
:1032400084F81132B4F88050B4F8BA20B4F8B83029
:10325000214F1544013DED1A3B68ADB20DF10E064C
:103260006BB1B4F80C12013989B20022204698479C
:10327000B4F80C3210FA83F39BB2A4F80C32B4F811
:103280000C32EB1A1B04ACD4B4F80C12009689B2C1
:10329000002301222046FFF73BF80028A1D0012897
:1032A00014D1B4F80C32BDF80E2012FA83F39BB29D
:1032B000A4F80C323B68002BD3D1E0E770471846E6
:1032C000AAE740F2BB513020FDF7B6F840F20261A8
:1032D0003020FDF7B1F800BF2C0500202DE9F043A8
:1032E000044683B0062900F2FE80DFE801F00425E1
:1032F00012222B327600D0E98C23D0E98E01824253
:103300008B41C0F093807A4B1B7A03F0FF02002BB5
:103310007DD0042384F8FC3107F0AEF90AF038F8C8
:10332000B4F88020A4F80E220023A4F84A3284F8CE
:10333000113203B0BDE8F083032380F8FC3103B001
:10334000BDE8F08306F0FEFDC4E98E0103B0BDE8E0
:10335000F08390F86D30DFF89891C569D0F80422B9
:10336000033B40F26D1840F24511012B88BF88469F
:1033700099F8093095428CBFAD1A00251BB9436BF3
:103380009D4228BF1D4604F13400D4F8D0710EF0E0
:1033900072FF074402200AF00BFFED1B25EAE575DA
:1033A000854228BF0546022128460AF055FF00B98C
:1033B0002F444246394620460EF0EAFFE269D4F82F
:1033C000D031C9F80C00D0180AF0B4FE0028B0D1F2
:1033D00040F27E313020FDF72FF890F86D502846EE
:1033E00007F05CFE033D434900F55F40012D00F10D
:1033F0004100A1FB003094BF2821002101EB901176
:103400008031204603B0BDE8F0430EF0D3BFB4F8DE
:10341000C411009201232046FEF77AFF00283FF4F2
:103420007BAF4FF4DA613020FDF706F894F81232E2
:10343000002B3FF468AF94F8FC31032B7FF463AFAB
:1034400094F86D800EF027F894F8B9310B2B48D81A
:10345000294AD4F8386232F81330D4F8D091C5181C
:1034600003F5C8639FB2D4E98C234046B61A07F02F
:103470000DFEA8F10302012AADB2A9EB00092ED975
:10348000404607F00BFE1B4B00F52342A132A3FB85
:1034900002239B09A9EB0303A3F174025208D43B56
:1034A0009D3205FB03F3B3FBF7F36033A2EB53014B
:1034B0008E424FEA530302D313449E4201D908F0CF
:1034C0000DFBE069294608F0C7FA94F8763003B19D
:1034D00002300023C4F8040284F8123213E7652393
:1034E000D8E7FEF715FE40F284713020FCF7A4FF08
:1034F0002C110020D34D621018590200012A70B51A
:10350000064609D0022A14460D461ED04AB140F2A2
:10351000AE713020FCF790FF06F00CFDC6F84C02AF
:1035200070BD06F007FD224601462846FFF75AFC0B
:103530000F4995F81001324608F0DAFD0028EFD166
:1035400040F297713020FCF777FFD0F84C1201223F
:103550002846FFF747FC064995F81001324608F067
:10356000C7FD0028DCD14FF4F5613020FCF764FF83
:10357000892B0000F8B5044651B101295BD1002325
:1035800080F8183107F078F8BDE8F84009F000BF7E
:10359000C58C002D47D12046D4E94A760FF03AFD7C
:1035A000401941F10001C01946EB0101002202233C
:1035B000C4E95401C4E94A0184F84021A4F848311F
:1035C00094F8603103F0FF01002BDBD1D4E95602FF
:1035D0006FF000439A4208BFB0F1FF3F0CD194F85E
:1035E000100104F5A0710AF07BF90028CAD140F25D
:1035F000EF613020FCF720FF2046D4E954560FF04D
:10360000BAFCD4F85831D4F85C215B1B00F1E5001A
:1036100062EB06021B1A62F10002002ADFDA204682
:1036200004F074FCAEE701F09DFFE58CB0FBF5F310
:1036300003FB1505AFE740F2BE713020FCF7FCFE3E
:1036400090F83801003818BF01207047014B5881AD
:10365000704700BF2C11002090F8543059070246E3
:103660000DD413F0030000D1704792F8550000F01C
:10367000FD00A0F10100B0FA80F04009704790F819
:103680005600A0F10100B0FA80F04009704700BF79
:10369000343270B592B205460C461E460CF0B6FCAC
:1036A00025B1034B1D601C745E741C7170BD00BF9E
:1036B00054110020014B1870704700BFD104002046
:1036C00090F86C00003818BF01207047014B58700B
:1036D000704700BF6C11002008B540F2A3110EF036
:1036E00071FEB0F5296F28BF4FF4296080B208BD84
:1036F000F0B5070CA7F5AA42144B543A012A03EA85
:1037000090231FD927F4004042F6AA22801A18BF3E
:1037100001200022162116461F2487EA060562EAC8
:103720000505013510D0DD03ADB245EA5606E503C7
:10373000ADB2013945EA52024FEA53034FEA54044D
:10374000EBD1F0BD0020E4E70020FAE7E0FF3F0006
:10375000F8B58D1FADB240F67A4C65450746BDF809
:1037600024601046BDF818203BD8841FA4B26445DD
:103770008CBF002401242546AFBB1D4F3F796FB19C
:103780005CB96FF450654D19062D06D86FF450647E
:103790000419062C8CBF002401242546FDB181426A
:1037A00024D803FB0666B6F5FA7F1FDCA2F10A03F4
:1037B0009BB240F67644A34218D80CF058FD42F272
:1037C00010735A4300FB06F1B2EB410F0ED9BDF85E
:1037D0001C50BDF8200085428CBF002501252846DD
:1037E000F8BD0024C7E797F87570C8E70025F6E72D
:1037F00020120020304BF0B5B0F86070B0F85E6079
:103800005D880C4611461A88974228BF1746964293
:1038100028BF16461B2E85B02ED0B5F5A47F2DD01F
:1038200040F648039D4201AA28BF1D460CF048FD02
:10383000BDF80A309F4228BF1F46BDF80C30E78014
:10384000AB4228BF2B462381BDF806309E4228BFDD
:103850001E46BDF8083066809D4228BF1D46A580E3
:10386000FF232370E3881B3B9BB2E02B08D940F277
:1038700019613920FCF7E0FD1B2FCED105B0F0BD5A
:1038800063881B3B9BB2E02B02D940F21B61F0E73F
:103890002389A3F5A4739BB240F64812934202D940
:1038A00040F21D61E5E7A388A3F5A4739BB29342A0
:1038B000E4D940F21F61DCE7201200202DE9F3413A
:1038C0000023CDE9003304460E46174600F10A08EE
:1038D0006846FDF7B1FA08B1002015E0009DA54249
:1038E000F6D030460CF0BDFCEB1CAA7839460DF042
:1038F0001DFF0028ECD06A7A607A05F10A03414680
:103900000DF014FF0028E3D002B0BDE8F081000004
:10391000054A134692F8202053F8211B11F8030B97
:10392000C0F380100DF002BF5C1700200138C0B258
:10393000032808B504D94FF450710620FCF77CFD2C
:10394000014B185C08BD00BFD85902000138C0B255
:10395000032808B504D94FF450710620FCF76CFD1C
:10396000014B185C08BD00BF425A02000138C0B2CA
:10397000032808B504D94FF450710620FCF75CFD0C
:10398000014B185C08BD00BF045B0200F7B5114B8A
:103990009C7EDD7E9F8B064614B900F0C5FD044673
:1039A000A5B900F0C1FD054614B9092003B0F0BD6A
:1039B0000028FAD0304601A98DF804408DF8055052
:1039C000ADF806700DF074FF0020EFE7002CF1D188
:1039D000EBE700BFB416002010B503210020FDF76F
:1039E000F1F9044670B90321FDF7AEF9044620B998
:1039F00040F24D313920FCF71FFD034B93F9601065
:103A00000FF073FA204610BD2012002038B50DF0DB
:103A10008CFE01F0A9F800F095FD0EF084FB01F09A
:103A20003DFA02F05FFB01F06DFA012000F04EFD5F
:103A30001A4B1B4A1A6000251B221A4C9A805D8380
:103A40009D839D771D76184B84F86150F922586844
:103A50002283164A1B892260E0612946142204F160
:103A600024002384A4F85450A576A580A5750BF0F6
:103A70000DFB012304F13A0042F21072C4E90A225C
:103A800084F8243084F8393084F856500FF06AFDF9
:103A900004F14400BDE838400FF089BDB4160020A1
:103AA00003021B0020120020D85902001B0048010D
:103AB000044B41F64C521B21C3E9022219745A618E
:103AC000FFF7A4BFB416002073B5394DAB680446A8
:103AD00040F8343FFFF76CFB064600F01FFD2B7CDF
:103AE00084F83C30334BE68710F0200F1B681DBF75
:103AF000AA886988A4F85E101B2208BFA4F85E207B
:103B0000A4F860201BB194F97410208898472A49C2
:103B10000B79003B18BF012384F87530274B1B68D5
:103B200013B120880831984794F87530002B41F67E
:103B30004C5318BF4FF47A73E3612046FFF726FF1A
:103B4000064648B120880221FDF752F960B340F2E1
:103B5000D3513920FCF770FC01236386184B1B6896
:103B600013B1014620889847164B1B6813B1208873
:103B700000219847AB886A886978019103332978D6
:103B8000009103329BB292B204F1180104F11400C7
:103B9000FDF78AF9636913B94FF4BE61D9E7A369E8
:103BA0001BB940F2F151D4E70926304602B070BD8E
:103BB000B416002034050020201200204C050020FF
:103BC00048050020440500202DE9F34105460E4636
:103BD0000FF0CCF9002800F0AF8028460FF057FA1C
:103BE00030B1B6F80130013B7F2B01D9122404E03B
:103BF00028460FF050FA20B90C24204602B0BDE848
:103C0000F0812846FFF71CFD0028F5D128460FF06B
:103C100056F980460028EFD1284603F07BFE0028A5
:103C2000E4D0B6F80170F17842F2107328465F4391
:103C30000FF019FA04213078FDF7C4F80621044684
:103C40003078FDF7BFF8002C78D038B141F6F31189
:103C50003920FCF7F1FB90F8BD800446414E3368F3
:103C6000002B6DD0403420460FF05AFC002867D05E
:103C700020460FF049FC002862D1B8F1000F08D0AF
:103C8000394B20461B689847002859D041F6072138
:103C9000DEE736493368496942462046984700289E
:103CA0004ED041F60C21D3E728460FF0F0F940B989
:103CB00002210DF10600FDF70FF8064658B90D2454
:103CC0009BE728460FF0F5F90028F1D1284B1B7926
:103CD000002BEDD18AE7002101F03AF8BDF806305B
:103CE0003380284631460FF002FA28460FF0E1F9FA
:103CF000A8B9296A28460FF0E6F901463046FFF7D1
:103D0000E3FE044600287FF478AF3A463146284661
:103D1000FFF73EF9044620B141F6382198E701212A
:103D2000ECE7134BDB6D002B3FF467AF024606F563
:103D30008D713046984760E742245EE700288AD1BB
:103D400028460FF09CF901460028ADD13A46284696
:103D5000FFF71EF9044600283FF44FAF41F6152146
:103D600076E700BF400500203C050020B416002087
:103D700020120020B0F90020F8B514B292B202F57A
:103D8000A0639BB2B3F5206F34D8B0F902301DB2F6
:103D90009BB203F5A06189B2B1F5206F2AD802F277
:103DA000F64189B240F2BE50814225D803F2F64175
:103DB00089B2814220D8002CC4BF093214B2002D30
:103DC000C4BF09331DB20A2094FBF0F401F06EF871
:103DD00067B206460A21384695FBF1F149B201F077
:103DE00057F8074B1B684BB1A01B40B208B198476E
:103DF0000020F8BD3020FCE71120FAE71846F8E76C
:103E000038050020034B5A8802801B7883700020FD
:103E1000704700BFB41600207FB583781A2B064682
:103E200009D8042B05D9012202FA03F3314A1342BF
:103E300005D112251AE0292B01D03B2BF9D130886E
:103E4000B0F5706FF5D269460DF0AFFC88B9019BF3
:103E500093F8182102F0FF05C2B9B27883F819214E
:103E6000FF2283F8182168460EF036F9284604B080
:103E700070BD30880921FCF7A5FF0446002837D023
:103E8000B0F8AC0102A90DF090FC08B10C25EDE7EB
:103E9000B4F8AE010821FCF795FF20B940F62811CF
:103EA0003920FCF7C9FA03781BB994F8C831032B01
:103EB000ECD1039B93F82E21002AE7D194F8F0214E
:103EC00002F0FF05002AE1D1B4F8B021A3F83021B7
:103ED00094F8B42183F83221027D83F83321B2783B
:103EE00083F8342184F8F021FF2283F82E21BDE7E6
:103EF0000225BBE7200038040188A1F11B039BB217
:103F0000E02B0CD84288A2F5A4739BB244F248106F
:103F1000834204D8034B002019805A807047122036
:103F2000704700BF20120020034B1A885B88028074
:103F300043800020704700BF2012002038B504786D
:103F40004278857804F0010352EA030104F0020488
:103F500001D1112038BDBCB9002DFAD0002B08BF0B
:103F6000144601E00024254620460CF044FA0028BF
:103F7000EFD028460CF03FFA0028EAD0054B00208D
:103F80009C76DD769883E5E7002BEBD114461D4641
:103F9000EAE700BFB416002013B5008869460DF0AB
:103FA00004FC18B10224204602B010BD9DF8003078
:103FB00001984BB90CF068F90028F3D0019890F8FB
:103FC0002A3123B13A24EEE70CF06CF9F4E790F8CB
:103FD000D23003F0FF04002BF4D190F8C9309B07D6
:103FE00006D1FF2380F82A3168460EF075F8DAE72B
:103FF0000249CA300EF0BFF8D5E700BF75290100AD
:104000002DE9FF410778EF2F04460E4601D912260D
:10401000A5E0B0F80130ADF80C309DF90C209DF80A
:104020000C30002AF3DB9DF80D209507EFD1D80660
:104030006CD4990603F0030265D5002AE7D11A076C
:1040400003D503F06703012BE1D163781D0711D479
:104050002179E278E07942EA0122617942EA01427B
:10406000A17941EA0021207A41EA00418A42CED872
:104070001F2ACCD9627A013A062AC8D8A27A032A22
:10408000C5D813F0040102D1023A012A03D8E27A1A
:10409000012ABCD811B9A27C032AB8D813F01001A8
:1040A000227D44D0012AB2D1237E012BAFD8002932
:1040B0004DD06378D80703D500F0CAF900284DD059
:1040C0006378227D03F0180108295AD1022A45D1CC
:1040D0001B0709D4E279A37943EA0223227A43EA4F
:1040E0000243B3F5804F39D81FFA87F803214046C1
:1040F000FCF768FE0546002849D0FFF7A1FA002822
:1041000051D00C262BE0032A99D180E713F0600FE1
:104110007FF47DAF03F00F0203F00703052B94D06B
:10412000931E012B91D9002A7FF471AF8DE7022AEB
:1041300004D103F06F03092B7FF469AFA37D013B2A
:10414000022B3FF664AFE37D0F2BADD95FE700F0A4
:10415000EBF981070AD4237D022B04D111263046C6
:1041600004B0BDE8F081A37D022BF7D000F0DCF9AC
:1041700042079ED4237D032BF0D0A37D032B98D13F
:10418000ECE7022AA4D0227F002AA1D0E6E703218F
:104190004046FCF7D9FD0546002841D0214B93F954
:1041A00060100EF0A2FE002138460FF099F918BBFE
:1041B00028460EF061FF21463070E074284603F077
:1041C00001FCE37E0646002BC9D00028C7D1E96C6C
:1041D00002466846FCF744FFE86C324601210BF0CA
:1041E0006AFFE96C68460422FCF73AFFE86C324645
:1041F00031460BF060FFB2E740300FF091F9002834
:10420000D6D0637813F0330F7FF401AF296AA77D0E
:1042100028460EF058FFFFF789FB8742C8D070E7A9
:1042200007269CE72012002030B50279042A8BB0C3
:1042300003465CD84488B4F5804F58D82D481044C4
:104240000021827C457BADF8001042F0100242EA6A
:104250004502C57D007F8DF8081042EA850242EADA
:10426000C00202F01F028DF80020BDF80020ADF85A
:1042700009201A888DF80B208DF80E40120A240AA6
:104280008DF80D108DF810108DF80C208DF80F4062
:104290005A7B8DF811205A798DF812209A79D3F82B
:1042A00007008DF81320B3F80B209B7B8DF81A3094
:1042B0007F238DF81B30012305908DF81D10ADF87C
:1042C00018208DF81C308DF81E3002A88DF81F10B4
:1042D0008DF820108DF823108DF824108DF8211002
:1042E0008DF822106946FFF78BFE0BB030BD12200F
:1042F000FBE700BFD85902000278034672B142784A
:1043000062B142881A2A09D982881A2A06D9044A2F
:10431000006810609B8893800020704712207047CF
:10432000B4160020024B02689A600020704700BF5C
:10433000B41600200378A3F10A02112A9DBF024A95
:104340000020137412207047B4160020014B187619
:104350000020704720120020014B58760020704743
:1043600020120020024B1B6803B118471120704730
:104370003005002008B5052000F0B4F805F05AF823
:10438000014B024ADA6508BD20120020F537000013
:1043900008B503F0A9F9FEF7EDFDBDE808400148B6
:1043A00003F08CB98412002008B50DF0BCF9064862
:1043B00000F58471FDF72EFC02200BF0F9FDBDE83D
:1043C000084000200BF0F4BD8412002008B5074B14
:1043D000012283F80A2203F08FF904F01DFAFFF797
:1043E000E3FFBDE8084000F0ADBF00BF841200202D
:1043F00010B5064C064904F503700DF00CF804F5F1
:1044000004700449BDE810400DF005B88412002086
:10441000500500205805002010B5094C094904F545
:1044200003700CF0F8FF04F5047007490CF0F3FF7B
:1044300004F505700549BDE810400CF0ECBF00BF65
:10444000841200206805002070050020600500200F
:10445000014B93F80A0270478412002038B5094CCA
:104460000D4600F04BFFD4F80C02C4F804510CF0D8
:10447000CAFFFFF71DFB01F0A5F8012384F81832ED
:1044800038BD00BF84120020014B93F8180270471A
:104490008412002010B50C4CD4F810020CF0B3FFBD
:1044A000D4F814020CF0AFFFFFF7B0FA202000F0B0
:1044B00027F8262000F024F8292000F021F8002316
:1044C00084F8183210BD00BF84120020014B83F81D
:1044D0001902704784120020014B93F819027047AB
:1044E00084120020C2080549012300F0070003FAE6
:1044F00000F08B5C18438854704700BFD80400203C
:10450000C208054900F0070001238340885C20EAC7
:1045100003008854704700BFD8040020014BD3E942
:1045200000017047D8040020054B1868C0F3C02272
:10453000C0F30020400040EA820040F001007047D4
:10454000D804002008B507F0CFFA084A002332F853
:104550002310814205D302EB83039B78044A137036
:1045600008BD01330C2BF2D10023F7E7125A0200E9
:104570009E140020024B1878072828BF0720704798
:104580009E14002010B544682388A4F8743184F880
:10459000731194F86C00FFF7D9F984F8760194F858
:1045A0006D00FFF7D3F9054984F8770104F5B5707C
:1045B0000DF0E1FD002384F8243110BD9B140100AF
:1045C000406808490388A0F8663190F8643080F8A4
:1045D000683190F8653080F8693100F25D100DF0B7
:1045E000C4BD00BFB11401002DE9F04F054685B0F0
:1045F00008460C460DF04FFD064620460DF043FDE3
:10460000804620460DF043FD834620460DF041FDD7
:104610006C6894F8873094F886A0242B074630D134
:1046200004F18709002E4BD00BF0070B58460CF015
:104630008EFF88B394F86C3098422DD094F82421E2
:10464000012A0CBF94F8262194F868201BEA020F77
:1046500036D0BAF1220F1FD094F865201BEA020F62
:104660001AD1461EF6B2032E06D85F4A013B164405
:10467000DBB2032B31790BD940F21F210620FBF767
:10468000DBFEBAF1220F40F0AB8004F18609C9E7E6
:1046900013441B798B4213D808F0070108460CF02D
:1046A00056FFC0B394F86D30834234D094F824316F
:1046B000012B0CBF94F8273194F8693019422AD1A4
:1046C00094F82431012B15D11E212846FFF75AFFFB
:1046D000BAF1220F12D16B68182283F809210A223D
:1046E00083F8862093F8C230002B45D140F2B321E5
:1046F0007E20C4E7002384F82431E9E7002328461C
:1047000089F800300DF092FE1821284605B0BDE86A
:10471000F04F0DF0B7BE03AB009320463B465A4620
:104720000CF020FF6C6888BB94F82431012B2AD14F
:10473000B4F8803094F86C10B4F8280104F52472B1
:104740000CF070FF0446C8B901462846FFF71AFF6F
:1047500089F800406B6803F18702914502D100227D
:1047600083F887206B6803F1870291454FF00004BE
:1047700033D128460DF05AFE002032E06B68282223
:1047800083F88620E6E784F82401E3E7B4F88000A4
:10479000A4F89072C0430744BFB247F6FD739F422E
:1047A00006D9282384F8A930284601F0EDF9D9E785
:1047B00094F887300E2B02D00B3B012B01D82A2313
:1047C000F0E79DF80C3084F892329DF80D3084F8B3
:1047D0009332262389F80030C4E783F8C240CBE740
:1047E000022005B0BDE8F08F425A0200044B0022BF
:1047F00083F832204FF6FF729A86DA861A8770475E
:10480000A0140020054B9A8E824201BF002283F83B
:1048100032204FF6FF729A86704700BFA014002026
:10482000014BD886704700BFA0140020094A0346F8
:10483000908E4FF6FF71884206D192F8321001290E
:1048400005D01A60012070470020186070470020D2
:10485000704700BFA0140020064B93F83220012AB5
:104860001FBF0120DA8E83F832009A8608BF00202D
:10487000704700BFA0140020014B1887704700BF8D
:10488000A0140020064B0246198F988E884205D14D
:1048900093F8320018B11360012070470020704770
:1048A000A0140020094B998E1A8F914201D000204C
:1048B00070474FF6FF729A8693F83220002AF6D09E
:1048C000002283F832200120704700BFA01400208E
:1048D000054B998E1A8F914203BF93F83200B0FABC
:1048E00080F0400901207047A014002050B90A4A06
:1048F0001346012003F8010B0868C2F801008A88FA
:104900009A807047012805D1034B0A689A608A880B
:10491000D8719A81704700BFDA14002048B90A4B59
:10492000187880B1D3F80120B3F805300A608B8085
:104930007047012806D1044BD87920B19A680A60E3
:104940009B89F4E700207047DA14002020B9054B5A
:10495000187800F00100704701280ABF014B0020C1
:10496000D879F6E7DA140020F7B500228B888DF8A5
:104970000600ADF8043008680C4B8DF80720019D47
:104980001C78014603F5AC73D0B2844201D80820EC
:1049900009E0D3E90076AE4208BF8F4203F1080375
:1049A00002F10102F0D103B0F0BD00BFE814002015
:1049B00030B5094B01465C78002203F58173D0B213
:1049C000844201D8082005E013F8015B8D4202F112
:1049D0000102F4D130BD00BFE8140020F0B5254D30
:1049E00095F8984189B0224605F2991168460AF077
:1049F000B9FB214668460CF0B7FE0446B8B300EB9D
:104A00004001C9B202A8FBF73BFF601E95F8A16107
:104A1000C0B2012495F8982105E0731CB3FBF2F1B4
:104A200002FB1133DEB206F120030DEB030111F896
:104A3000203C002BF1D100EB400220326A4406EB0F
:104A400046032B4412F8187C83F8A27112F8177CE5
:104A500012F8162C83F8A37183F8A42101F8204CD6
:104A60000138AB19C0B2FF2883F89941D2D109B0FF
:104A7000F0BD00BFE814002070B5064688B00C46B3
:104A8000002A4FD02A4A92F8A131D01890F89911F3
:104A900021B94FF480712820FBF7CEFC03EB4301D2
:104AA0001144013391F8A251E57091F8A35191F8A6
:104AB000A41161710021257180F8991192F8981163
:104AC000B3FBF1F001FB103382F8A13192F8C2314F
:104AD00023B9184902F5DD700DF04AFB657905F040
:104AE0003F0545F0400565710D22002168460AF03A
:104AF000CDFAE3788DF80F3023798DF80E3004AAC3
:104B00000423694630468DF80D500AF061F89DF88F
:104B10001F3023709DF81E3063709DF81D30A37008
:104B200008B070BD03216018FBF7AAFED6E700BFEE
:104B3000E8140020DD490000044B5A78824286BF09
:104B40001B1893F84A010020704700BFE8140020AA
:104B5000044B5A78824286BF1B1893F8420100200A
:104B6000704700BFE8140020064B00224FF461712B
:104B70001A8083F8C32183F8C421A3F8C61183F8EF
:104B8000C2217047E8140020014B83F8C40170472C
:104B9000E8140020014BB3F8C6017047E814002068
:104BA00030B50A4B5C7884420ED9184490F8020163
:104BB0002B3003EBC004A5790D7053F83000106062
:104BC000A3889380012030BD0020FCE7E81400207A
:104BD0000246074810B590F8C34124B1417821B18D
:104BE000023004F043FC204610BD0C46FBE700BF3A
:104BF000E81400202DE9F74F2F4C9A466378834242
:104C00008046894656D9231893F8425185F001050C
:104C1000F9B193F84A31E3B945F002070135BAF129
:104C2000000F18D1FA070AD5062101FB084104EB51
:104C30000810524601F585718230FFF71DFFBB0752
:104C400034D504EB0810524649460230FFF714FFF2
:104C50002CE02F46E3E794F8A1614FF0010B002D03
:104C6000E0D0A319019393F8991199B90092DAB1A0
:104C700000F078FC06EB46012144019B81F8A2017B
:104C80004FEA102C009A81F8A3C1000C81F8A4010E
:104C900083F899B194F898310136B6FBF3F103FB30
:104CA0001166F6B2013DDAE747F00407384603B073
:104CB000BDE8F08F0027F9E7E8140020074B5A7889
:104CC000824209D91A1892F842212AB9062202FB17
:104CD000003000F58570704700207047E814002010
:104CE000064B5A78824281BF1B1893F83A01B0FAFA
:104CF00080F0400998BF0020704700BFE8140020F2
:104D000030B50024A0F84040B0F8444042F210759D
:104D10004C43B4FBF2F4A0F84440541E05FB03439B
:104D2000B3FBF2F3A0F84230084BB3FBF2F30133CC
:104D3000A0F84830838F05FB0344436BB4FBF2F4C7
:104D400059438463B1FBF2F2426330BD005A620200
:104D500070B504460D4651BB4FF432720AF096F915
:104D6000012384F88E306FF0360384F8D9300423A1
:104D700084F8DA306FF03B0384F8DB306F2384F87B
:104D8000DC306FF03C0384F8DD30062384F8DF303C
:104D90002B2384F8D830FE2384F80E317F2384F847
:104DA0008530202384F8DE5084F8143270BD012948
:104DB00022D10023A0F8D43180F8CB31144BC26942
:104DC0001344B3FBF2F3C0F8B03040F6B833A0F8A8
:104DD000B4301146C38C7830FFF792FF0AF010F818
:104DE00030B1206AFEF784FC10B984F8B851DDE7D1
:104DF000002384F8B831D9E70229D7D1B0F89E3220
:104E0000D0F89822C169BDE870407830FFF778BFCC
:104E10007FC3C901034B80F874101B680BB1008875
:104E20001847704778050020074B93F90030184465
:104E3000142804DC10F17F0F03DB40B2704714200C
:104E400070476FF07E007047B016002007B57F23D3
:104E50000DF107008DF8073005F04AFD9DF9073088
:104E600068B10A4A5078404243FA80F0142808DCBE
:104E700010F17F0F07DB40B203B05DF804FB18466A
:104E8000FAE71420F8E76FF07E00F5E7B01600208F
:104E9000014B187059707047B0160020024B002269
:104EA0001A705A70704700BFB0160020014B93F97A
:104EB00000007047B0160020014B93F901007047C5
:104EC000B0160020054B1B7833B9054B1A681B79C7
:104ED000026003710120704700207047B216002065
:104EE000E0040020054BFF221A70054A016811609A
:104EF0000179117100221A70704700BFB2160020AC
:104F0000E004002007B5064B186800901B798DF867
:104F100004306846FFF7E6FF03B05DF804FB00BF0E
:104F20007F6C02000346407898B1DB783C2B05D8B3
:104F3000084AD35C1B1A58425841704703F11602C5
:104F4000D2B2042A04D8034A134413F8AD3CF1E763
:104F5000012070474A5A02003C2908B5C17003D8A5
:104F60000B4B5B5C437008BD01F11603DBB2042BF5
:104F700004D8074B194411F8AD3CF3E7FF2904D0DE
:104F800040F259412A20FBF757FA0123EAE700BF14
:104F90004A5A02002DE9F04385B0894602A9144619
:104FA00098460CF002FC054600283DD1039E34B91A
:104FB000012486F88D40204605B0BDE8F08377696E
:104FC000214638460AF018FE014678B3194B5B8833
:104FD000A3422DD301AA38460AF067FF96F88D3018
:104FE0000198002B0CBF494602210CF063FF019889
:104FF0002246414603300AF0B5F8214638460AF009
:1050000040FE044618B97D212B20FBF715FA9DF8C8
:1050100008302BB102A80DF05FF8039BA3F8C25132
:10502000002386F88D30C6E70124C4E70446C2E7B2
:105030002C46C0E7B4160020024B987FC04300F016
:1050400001007047B4160020034B987F80F00200E7
:10505000C0F34000704700BFB416002083230B70DC
:10506000014B1B78CB707047D41600202DE9F74315
:105070008769814638460D460AF009FF014618B98E
:10508000FC211020FBF7D8F901AA38460AF00DFFE1
:10509000064610B94FF48071F3E7019BB9F80000A0
:1050A00003F103081D4B1B687BB9B9F80030AB80D6
:1050B000002301986B72EE800CF004FF01280ED0E3
:1050C00002280CD04FF48D71DBE7324641469847F9
:1050D00004460028E9D1204603B0BDE8F0832872D9
:1050E00038460AF0EAFE044610B940F22311C8E738
:1050F000FB2E02D94FF49671C3E7286810B940F22D
:105100002D11BEE7324641460AF02CF838460AF027
:105110001CFE0028DFD140F23111B2E780050020EB
:105120002DE9F347DFF87081DFF8709106460D46F0
:1051300005272B694BB11B7A1BB97E211020FBF789
:105140007BF92C6994B9002066E06C68237A012B06
:10515000F9D0EFF3108372B66A6812686A6003B917
:1051600062B62C61237A0BB9A421E7E794F808A072
:105170005FFA8AFA27720AF1FF330B2B77D8DFE840
:1051800003F073061027703D4E3D3D3D3D61636861
:1051900013B94FF4D471D1E7314620469847042023
:1051A0001EE0636813B940F2B111C7E731462046EB
:1051B00098470346C3F30723012BADF80400C0B2A0
:1051C00058D0022B0CD100232B610028B1D023E052
:1051D000636813B940F2B911B0E720469847002040
:1051E000EFF3108372B6227A052AD1B24AD1002297
:1051F00022722A61002BE8D162B6E6E7D9F80030C6
:10520000002BECD06068524631469847BAF10A0F3D
:10521000C5D100232B61042002B0BDE8F08763688C
:105220000BB9B3218AE70D22327019885869A6F8A4
:10523000031001220024B2707271B4710AF085FD6E
:105240002C61E8E7606810B940F2E11176E7D8F820
:10525000003031469847034660B100232B6102209D
:10526000DAE74FF4F97169E740F2F51166E74FF4B8
:10527000FC7163E784F808A00028CDD1002B7FF4EF
:1052800058AF60E711B940F2192157E7002B7FF4BE
:1052900050AF62B64DE700BF7C05002084050020BA
:1052A00070B5144C1426231D32460021184609F00F
:1052B000EDFE03460125257400210433324604F136
:1052C0001800C4E9013309F0E1FE84F824500A4AC9
:1052D00004F11C03C4E906330023E362236384F86A
:1052E0003430C4F83530C4F8393084F83D301360B8
:1052F00070BD00BFD41600208005002010B5084CFA
:105300002378FF2B04D04FF49D711020FBF794F805
:1053100009F0A6FC2070BDE81040FFF7C1BF00BF38
:10532000E504002010B5034C207809F0B5FCFF23FC
:10533000237010BDE5040020014B187809F0BCBCB7
:10534000E5040020014B024A1A6070477C050020EA
:105350006D50000010B506490446FFF7E1FE28B97C
:1053600020460449BDE81040FFF7DABE10BD00BF7B
:10537000EC160020D816002010B51346027A22B190
:1053800040F295211020FBF757F80A46BDE810407F
:10539000014601480CF0C9BED8160020044890F818
:1053A00034301BB903492C300CF0DCBE704700BF11
:1053B000D41600201D2101000346064890F83E2027
:1053C0003AB190F83D2022B900F8353B02490CF083
:1053D000C9BE7047D41600205D50000010B50A46C3
:1053E000037A23B140F29D211020FBF725F80146F6
:1053F000BDE81040014807230CF097BEEC160020D2
:105400001346027A0AB1037270470A460146014800
:105410000CF08BBED81600201B234FF01B12838488
:10542000038482618382C260038541B94FF4A4730F
:10543000094AC3844384C261C382026170474FF446
:105440002963C38443844FF4A47203F12963C361C5
:10545000C2820361704700BF480148010346084605
:10546000B3F85820B3F84C10B3F842C0F0B48A42F5
:1054700093F86D40B3F85060B3F84870B3F84650F5
:1054800028BF0A46B3F85A10A3F84220033CB142A1
:10549000E4B228BF3146012C8BBFB3F84A604FF409
:1054A00029660C464FF42964974238BF17468E424E
:1054B00038BF0E469445A3F84640A3F84870A3F8B9
:1054C0004A6026D12C1B18BF0124B3F85420B3F82E
:1054D0004E50B3F84060B3F84410954228BF1546CB
:1054E00093F86C20033A012A15D9B3F85220B3F887
:1054F0005670BA4228BF3A46AE42A3F84050A3F8CD
:10550000442002D1914200D144B1F0BC04490CF0D6
:1055100032BE0124D9E74FF42962EDE7F0BC7047B1
:105520007D2101000B8BA2F80B304B8BA2F80D30C4
:105530008B8BA2F80F30CB8BA2F809000249A2F89E
:10554000113010460CF011BEDF210100014B18781C
:10555000704700BF13170020014B1878704700BF39
:10556000E6040020094AD2E90003434083EAB0116F
:1055700081EA43214FEAF3435360054B11605843DE
:105580004FEAF06000EB8000704700BF1417002066
:10559000BB79379E094AD2E90003434083EAB01140
:1055A00081EA43214FEAF3435360054B11605843AE
:1055B0004FEAF06000EB8000704700BFE804002075
:1055C000BB79379E10B50A4C09480821FBF758F9FA
:1055D000D4E900231343F7D0064CFFF7DBFF20602C
:1055E000FFF7D8FF236860600343F6D010BD00BF0B
:1055F000E804002014170020174B184A9A60184A34
:105600005A60184A1A60184A9A62184ADA62184AA6
:10561000DA60184A9A61184A1A63184A1A62184AD4
:10562000DA64184A9A64184A5A62184B184A9A60FF
:10563000184A5A62184ADA62184A1A61184A5A61B4
:10564000184A9A61184A1A63184A9A64184ADA641E
:10565000184A9A63704700BF88050020D7240100CC
:105660000D2501008525010065270100D7270100D0
:10567000B15C0000ED270100495F0000B95D00004A
:10568000C9280100ED280100155E000090060020E9
:10569000F92401008D2801000F280100B327010023
:1056A00033280100595D00009329010033290100CE
:1056B0002129010073280100044B054A5A65054B56
:1056C000054A1A65054A5A65704700BF88050020DB
:1056D000E326010090060020C926010011270100E1
:1056E000054B064A9A65064A1A66064B064A9A65AB
:1056F000064ADA65704700BF880500205F16010082
:10570000E94500009006002035150100071701004B
:105710002A2A73B505460C462ED82A2A35D8DFE842
:1057200012F039007D0087009300AB0091009100DA
:10573000BA00BC00C20091009100C700D200BC00BA
:1057400034003400D60091009100F100F100F8001F
:10575000FF000B01340034002A01470154015A01B3
:1057600060016B016D016F0171017C0184019B017E
:105770009D01340034008C01EB2A00F07381FF2A74
:1057800000F07281EA2A00F06B8140F266415120FC
:10579000FAF752FE4168D1F80432B1F8FE21A3F5C0
:1057A0007A7541F2707085420CD84FF47A70B3FB71
:1057B000F0F303F550639BB26420B2FBF0F20120DA
:1057C000D2B20DE040F2E2406FF45065B3FBF0F36B
:1057D0009BB25D19062DEFD9B2FBF0F20020D2B2D8
:1057E0002271D1F80022B0B16420B2FBF0F292B283
:1057F0006271E371120A1B0AA2712372B1F80832B6
:1058000063721B0AA372B1F80A12204602B0BDE807
:1058100070400CF07BBB40F2E240E6E74368D3F80F
:10582000F0112046013102B0BDE870400CF0A2BB7F
:1058300002784368012A02D193F8103101E093F80D
:105840001931237102B070BD4568204605F50E710F
:105850000CF09FFB05F5107120460CF0A4FB05F53C
:10586000067120460CF0A5FBD5F80011204602B0C9
:10587000BDE870400CF0ABBB4168204601F5EF710C
:105880000CF0ABFB6B68D3F80411204602B0BDE806
:1058900070400CF0A4BB4368CEE7084602B0BDE8F8
:1058A000704000F00BBB02B0BDE8704000F016BBCA
:1058B0000E230B7159234B7100238B71F323CB7192
:1058C00010230B72BEE7436893F80A31B9E70378F7
:1058D00046687BB996F8103163B196F80D112046F1
:1058E0000CF0E8FB96F80C11204602B0BDE87040C1
:1058F0000CF0E4BB96F80B1120460CF0DBFB96F89D
:105900000A11F1E74168204602B0BDE870400CF092
:10591000CABD436893F82621227193F8273109E024
:10592000436893F82421012AF4D093F868200A717F
:1059300093F86930637185E7456895F8FB010BF0D2
:1059400084FE014620460CF0A0FB95F8FA01C31E28
:10595000012B07D895F86C30DA1E012A02D898423C
:1059600018BF00200BF071FE0146204602B0BDE8D2
:1059700070400CF086BB45680023204601218DF85D
:1059800004300CF0A3FA2A7C6B7C032A08BF0022A7
:1059900003F01F0343EA82139DF8042002F0200263
:1059A000134301A920468DF804300CF098FA49E71A
:1059B00043680F211888FBF705FA00F15B012046C8
:1059C00002B0BDE870400CF039BB084602B0BDE83B
:1059D00070400DF0B7BD084602B0BDE870400DF054
:1059E000B9BD274B1B68002B3FF42CAF294620463E
:1059F00002B0BDE870401847224BF3E7224BF1E7B5
:105A0000224BEFE7224B1B68002B3FF41BAF0246F3
:105A1000232002B0BDE8704018471D4B1B68002BC7
:105A20003FF410AF02462420F3E7194B1B68002B0C
:105A30003FF408AF02462520EBE743680F211888A2
:105A4000FBF7C0F900F17D0200F15B01204602B0D6
:105A5000BDE870400CF0FEBA0E4BC3E70E4BC1E739
:105A60000E4BBFE70E4BBDE7436893F88722D3F890
:105A70008812204602B0BDE870400CF033BA00BF77
:105A80009C070020A007002098070020A407002002
:105A9000B8070020B4070020B0070020AC070020A2
:105AA000A80700203C2803D8064B53F82000704775
:105AB00000F11603DBB2042B01D8AD38F4E7002067
:105AC000704700BF880500203C2803D8064B53F8D8
:105AD0002000704700F11603DBB2042B01D8AD386B
